:100000000C945D000C9421020C94FA010C94850070
:100010000C9485000C9485000C9485000C9485004C
:100020000C9485000C9485000C9485000C9485003C
:100030000C9485000C9485000C9485000C9485002C
:100040000C94B0010C9485000C9485000C948500F0
:100050000C9485000C9485000C9485000C9485000C
:100060000C9485000C9485000000000024002700FB
:100070002A0000000000250028002B0004040404CE
:100080000404040402020202020203030303030342
:10009000010204081020408001020408102001021F
:1000A00004081020000000080002010000030407FB
:1000B0000000000000000000ED0611241FBECFEF7D
:1000C000D8E0DEBFCDBF11E0A0E0B1E0EEE6FEE09B
:1000D00002C005900D92A430B107D9F721E0A4E049
:1000E000B1E001C01D92AB3AB207E1F710E0CDE5F7
:1000F000D0E004C02197FE010E942F07CC35D10724
:10010000C9F70E9471020C9435070C940000A1E21B
:10011000B1E01496ED91FC91159783E0EE0FFF1F6F
:100120008A95E1F716968D919C911797E80FF91F24
:10013000EE0FFF1FE55DFE4F1182108284E090E01C
:1001400015969C938E93149717969C938E9316975F
:1001500081E090E0909374018093730183E090E0DC
:1001600019969C938E931897089590E0FC01EC5596
:10017000FF4F2491FC01E057FF4F3491FC01E458FC
:10018000FF4FE491EE23C9F0222339F0233001F12F
:10019000A8F4213019F1223029F1F0E0EE0FFF1F11
:1001A000EE58FF4FA591B4918FB7F894EC9161117F
:1001B00026C030953E233C938FBF08952730A9F089
:1001C0002830C9F0243049F7809180008F7D03C02A
:1001D000809180008F7780938000DFCF84B58F7708
:1001E00084BDDBCF84B58F7DFBCF8091B0008F774E
:1001F0008093B000D2CF8091B0008F7DF9CF3E2B9D
:10020000DACFCF93DF9390E0FC01E057FF4F2491CA
:1002100084589F4FFC0184918823D1F090E0880F8F
:10022000991FFC01E859FF4FA591B491FC01EE58CC
:10023000FF4FC591D491623071F49FB7F8943C910F
:10024000822F809583238C93E8812E2B28839FBF58
:10025000DF91CF9108958FB7F894EC912E2B2C93CA
:100260008FBFF6CF3FB7F89480911D0190911E018A
:10027000A0911F01B091200126B5A89B05C02F3F7A
:1002800019F00196A11DB11D3FBFBA2FA92F982FBC
:100290008827BC01CD01620F711D811D911D42E0B7
:1002A000660F771F881F991F4A95D1F70895089503
:1002B00020911301309114011216130624F5809138
:1002C00011019091120143E0880F991F4A95E1F7BF
:1002D000F9013296E80FF91FEE0FFF1FE55DFE4FA3
:1002E0001182108221503109FC01E20FF31FEE0F41
:1002F000FF1FE55DFE4F81E090E0918380833093A6
:1003000014012093130108952091130130911401D9
:100310002530310524F5809111019091120143E0BF
:10032000880F991F4A95E1F7FC01E20FF31FEE0FCA
:10033000FF1FE55DFE4F11821082F9013396E80F31
:10034000F91FEE0FFF1FE55DFE4F81E090E0918306
:1003500080832F5F3F4F3093140120931301089542
:100360001F920F920FB60F9211242F933F938F93EA
:100370009F93AF93BF938091190190911A01A0911F
:100380001B01B0911C013091180123E0230F2D3780
:1003900058F50196A11DB11D2093180180931901F4
:1003A00090931A01A0931B01B0931C0180911D0131
:1003B00090911E01A0911F01B09120010196A11DF5
:1003C000B11D80931D0190931E01A0931F01B09356
:1003D0002001BF91AF919F918F913F912F910F90ED
:1003E0000FBE0F901F90189526E8230F0296A11DAF
:1003F000B11DD2CF1F920F920FB60F9211242F93DF
:100400003F934F935F936F937F938F939F93AF939C
:10041000BF93EF93FF93E0910201F09103010995DF
:10042000FF91EF91BF91AF919F918F917F916F91CC
:100430005F914F913F912F910F900FBE0F901F90A2
:1004400018951F920F920FB60F9211242F933F937E
:100450004F935F936F937F938F939F93AF93BF93CC
:10046000EF93FF93E0910001F09101010995FF9155
:10047000EF91BF91AF919F918F917F916F915F911C
:100480004F913F912F910F900FBE0F901F90189595
:10049000FC0181E090E09183808383E090E093838E
:1004A000828387E090E09583848382E090E0978365
:1004B00086836087611102C0158214820480F581F1
:1004C000E02D84E0EE0FFF1F8A95E1F7E55DFE4F1A
:1004D00081E090E0958384839783868391878087EA
:1004E0000895789484B5826084BD84B5816084BDAC
:1004F00085B5826085BD85B5816085BD80916E00C2
:10050000816080936E0010928100809181008260F2
:10051000809381008091810081608093810080912F
:1005200080008160809380008091B100846080931E
:10053000B1008091B00081608093B00080917A001A
:10054000846080937A0080917A00826080937A0040
:1005500080917A00816080937A0080917A0080682F
:1005600080937A001092C10061E084E00E94010152
:1005700061E085E00E94010161E086E00E940101E6
:1005800061E087E00E94010161E088E00E940101D2
:1005900061E089E00E94010161E08AE00E940101BE
:1005A00061E08BE00E94010161E08CE00E940101AA
:1005B00061E08DE00E94010161E08EE00E94010196
:1005C00061E08FE00E94010161E080E10E94010191
:1005D00061E081E10E94010161E082E10E9401018C
:1005E00061E083E10E94010161E084E00E94B500C6
:1005F00061E085E00E94B50061E086E00E94B50000
:1006000061E087E00E94B50061E088E00E94B500EB
:1006100061E089E00E94B50061E08AE00E94B500D7
:1006200061E08BE00E94B50060E08CE00E94B500C4
:1006300060E08DE00E94B50060E08EE00E94B500B1
:1006400060E08FE00E94B50060E080E10E94B500AC
:1006500060E081E10E94B50060E082E10E94B500A7
:1006600060E083E10E94B50062E083E00E94010146
:1006700062E082E00E94010184E891E0909303012E
:1006800080930201809169008C6080936900E99AEF
:1006900088E591E0909301018093000180916900C9
:1006A000836080936900E89AAA24A394B12C72E035
:1006B000672E712CF12CE12C87010F5F1F4F013049
:1006C000110509F063C060E084E00E94B50061E0BC
:1006D00085E00E94B5000330110509F063C060E0B9
:1006E00086E00E94B50061E087E00E94B500053019
:1006F000110509F063C060E088E00E94B50061E088
:1007000089E00E94B5000730110509F063C060E080
:100710008AE00E94B50061E066C0780109301105E9
:1007200059F6809116019091170101969093170147
:100730008093160162E370E00E940707892B09F09D
:10074000BAC1C0911101D0911201E0901301F09053
:1007500014010091080110910901C0900A01D09084
:100760000B018090290190902A0182E08816910463
:1007700009F4A9C108F0A4C021E08216910409F48B
:10078000F9C010922A011092290195C161E084E01C
:100790000E94B5000230110509F099CF60E085E0B4
:1007A0000E94B50061E086E00E94B50004301105AA
:1007B00009F099CF60E087E00E94B50061E088E031
:1007C0000E94B5000630110509F099CF60E089E07C
:1007D0000E94B50061E08AE00E94B50060E0083048
:1007E000110509F098CF8BE00E94B500D0E0C0E081
:1007F00053E0EE0CFF1C5A95E1F7F701EC0FFD1FDB
:10080000EE0FFF1FE55DFE4FD08021966D2D8CE031
:10081000C130D10521F0C230D10591F58DE00E94A3
:10082000B5006D2D81E1C630D10509F446C02EC05A
:10083000C930D10511F70E9432016B017C0132E011
:10084000232E312C412C512C0E9432016C197D0930
:100850008E099F09683E734081059105A8F388EED3
:10086000C80E83E0D81EE11CF11C2A9423282428FA
:10087000252809F452CF212C312C21012394E4CFD7
:10088000C330D10549F48EE00E94B5006D2D82E1A0
:10089000C730D10591F006C0C430D10549F48FE0CE
:1008A0000E94B500C830D10519F66D2D83E105C051
:1008B00080E1C530D10509F0B4CF0E94B5009DCFCD
:1008C00083E08816910409F4A1C194E0891691048B
:1008D00009F057CF809125019091260101968C1740
:1008E0009D0709F02CC28091270190912801019762
:1008F000970121503109821793073CF02FEFE21A3C
:10090000F20AE816F9060CF07CC1E0912701F0919B
:1009100028011E161F060CF045C0809125019091FC
:10092000260187309105F4F5DC0123E0AA0FBB1FF7
:100930002A95E1F7AE0FBF1FAA0FBB1FA55DBE4FE3
:100940001D921C923197F0932801E09327010196A4
:10095000909326018093250143E0880F991F4A95C3
:10096000E1F7E80FF91FEE0FFF1FE55DFE4FB182C3
:10097000A082C4C08091250190912601019708179B
:10098000190799F480912701909128010196C816C2
:10099000D9060CF055C023E0C20ED11CC816D906EA
:1009A0000CF44EC083E090E082C0801791070CF0F9
:1009B00047C00E94870063E0000F111F6A95E1F7AE
:1009C000F801EC0DFD1DEE0FFF1FE55DFE4F91825E
:1009D0008082F6013196E00FF11FEE0FFF1FE55DFB
:1009E000FE4F91828082F6013296E00FF11FEE0FEA
:1009F000FF1FE55DFE4F9182808213E0CC0FDD1F6B
:100A00001A95E1F7FE01EE0DFF1DEE0FFF1FE55DEC
:100A1000FE4F91828082F7013196EC0FFD1FEE0FA1
:100A2000FF1FE55DFE4F9182808292E0E90EF11C8E
:100A3000CE0DDF1DCC0FDD1FC55DDE4F9982888294
:100A4000E0912701F0912801E730F1050CF0D9C0C1
:100A50008091250190912601181619060CF0D1C03D
:100A6000DC0123E0AA0FBB1F2A95E1F7AE0FBF1FE1
:100A7000AA0FBB1FA55DBE4F1D921C923196F0932D
:100A80002801E09327010197909326018093250187
:100A900043E0880F991F4A95E1F7E80FF91FEE0F21
:100AA000FF1FE55DFE4FB182A08281E090E0909350
:100AB0002A018093290180E090E0892B09F4FACD86
:100AC0000E940000F7CD80912501909126010197A9
:100AD00008171907B1F48091270190912801019717
:100AE000960121503109821793070CF455C02FEF5E
:100AF000C21AD20AC816D9060CF44EC084E090E09F
:100B0000D6CF801791070CF047C00E94870063E0A2
:100B1000000F111F6A95E1F7F801EC0DFD1DEE0FB6
:100B2000FF1FE55DFE4FB182A082F6013196E00F16
:100B3000F11FEE0FFF1FE55DFE4FB182A082F601AF
:100B40003296E00FF11FEE0FFF1FE55DFE4FB18201
:100B5000A08213E0CC0FDD1F1A95E1F7FE01EE0D28
:100B6000FF1DEE0FFF1FE55DFE4FB182A082F70172
:100B70003196EC0FFD1FEE0FFF1FE55DFE4FB182BA
:100B8000A08292E0E90EF11CCE0DDF1DCC0FDD1F1F
:100B9000C55DDE4FB982A882E0912701F09128015E
:100BA0001E161F060CF081CF809125019091260121
:100BB000181619060CF079CFDC0123E0AA0FBB1F31
:100BC0002A95E1F7AE0FBF1FAA0FBB1FA55DBE4F51
:100BD0001D921C923197F0932801E0932701019711
:100BE000909326018093250143E0880F991F4A9531
:100BF000E1F7E80FF91FEE0FFF1FE55DFE4FB18231
:100C0000A08270922A016092290155CF809125011E
:100C10009091260101968C179D0709F045C080919F
:100C20002701909128010196E816F9063CF423E08B
:100C3000E20EF11CE816F9060CF037CFE09127011F
:100C4000F0912801E730F1050CF058CF8091250193
:100C500090912601873091050CF050CFDC0123E004
:100C6000AA0FBB1F2A95E1F7AE0FBF1FAA0FBB1F2C
:100C7000A55DBE4F1D921C923196F0932801E09322
:100C800027010196909326018093250143E0880F68
:100C9000991F4A95E1F7E80FF91FEE0FFF1FE55D79
:100CA000FE4FB182A0827ECEC817D9073CF60E94C3
:100CB000870063E0000F111F6A95E1F7F801EC0D62
:100CC000FD1DEE0FFF1FE55DFE4FB182A082F60114
:100CD0003196E00FF11FEE0FFF1FE55DFE4FB18271
:100CE000A082F6013296E00FF11FEE0FFF1FE55DC7
:100CF000FE4FB182A08213E0CC0FDD1F1A95E1F701
:100D0000FE01EE0DFF1DEE0FFF1FE55DFE4FB182F0
:100D1000A082F7013196EC0FFD1FEE0FFF1FE55D7E
:100D2000FE4FB182A08282E0E80EF11CCE0DDF1DE5
:100D3000CC0FDD1FC55DDE4FB982A8827FCFC817FB
:100D4000D9070CF0E2CD0E94870063E0000F111F6D
:100D50006A95E1F7F801EC0DFD1DEE0FFF1FE55D53
:100D6000FE4FB182A082F6013196E00FF11FEE0F27
:100D7000FF1FE55DFE4FB182A08282E0C80ED11C4C
:100D8000C00ED11EF601EE0FFF1FE55DFE4FB182D2
:100D9000A08213E0CC0FDD1F1A95E1F7FE01EE0DE6
:100DA000FF1DEE0FFF1FE55DFE4FB182A082F70130
:100DB0003196EC0FFD1FEE0FFF1FE55DFE4FB18278
:100DC000A08292E0E90EF11CCE0DDF1DCC0FDD1FDD
:100DD000C55DDE4FB982A88298CDE1E2F1E081E005
:100DE00090E0918380839383828384E090E0958375
:100DF0008483978386830E94870060E084E091E08B
:100E00000E94480261E08DE091E00C94480297FB5B
:100E1000072E16F4009407D077FD09D00E941B0717
:100E200007FC05D03EF4909581959F4F08957095ED
:100E300061957F4F0895AA1BBB1B51E107C0AA1FF4
:100E4000BB1FA617B70710F0A61BB70B881F991F6B
:100E50005A95A9F780959095BC01CD010895EE0FA4
:0E0E6000FF1F0590F491E02D0994F894FFCF48
:040E6E0057015701D0
:00000001FF
