:100000000C945D000C94F3010C94CC010C948500CD
:100010000C9485000C9485000C9485000C9485004C
:100020000C9485000C9485000C9485000C9485003C
:100030000C9485000C9485000C9485000C9485002C
:100040000C9482010C9485000C9485000C9485001E
:100050000C9485000C9485000C9485000C9485000C
:100060000C9485000C9485000000000024002700FB
:100070002A0000000000250028002B0004040404CE
:100080000404040402020202020203030303030342
:10009000010204081020408001020408102001021F
:1000A00004081020000000080002010000030407FB
:1000B0000000000000000000F90311241FBECFEF74
:1000C000D8E0DEBFCDBF11E0A0E0B1E0E2E4F8E0AF
:1000D00002C005900D92A430B107D9F721E0A4E049
:1000E000B1E001C01D92A93AB207E1F710E0CDE5F9
:1000F000D0E004C02197FE010E941904CC35D1073D
:10010000C9F70E9443020C941F040C94000090E075
:10011000FC01EC55FF4F2491FC01E057FF4F349157
:10012000FC01E458FF4FE491EE23C9F0222339F09B
:10013000233001F1A8F4213019F1223029F1F0E047
:10014000EE0FFF1FEE58FF4FA591B4918FB7F894B3
:10015000EC91611126C030953E233C938FBF0895EA
:100160002730A9F02830C9F0243049F78091800069
:100170008F7D03C0809180008F7780938000DFCFD8
:1001800084B58F7784BDDBCF84B58F7DFBCF809125
:10019000B0008F778093B000D2CF8091B0008F7D78
:1001A000F9CF3E2BDACFCF93DF9390E0FC01E057FD
:1001B000FF4F249184589F4FFC0184918823D1F0F4
:1001C00090E0880F991FFC01E859FF4FA591B49169
:1001D000FC01EE58FF4FC591D491623071F49FB786
:1001E000F8943C91822F809583238C93E8812E2B69
:1001F00028839FBFDF91CF9108958FB7F894EC913A
:100200002E2B2C938FBFF6CF3FB7F8948091A5018A
:100210009091A601A091A701B091A80126B5A89B35
:1002200005C02F3F19F00196A11DB11D3FBFBA2F88
:10023000A92F982F8827BC01CD01620F711D811D48
:10024000911D42E0660F771F881F991F4A95D1F7CD
:100250000895089520910A0130910B01121613069A
:1002600024F5809108019091090143E0880F991FBE
:100270004A95E1F7F9013296E80FF91FEE0FFF1FDB
:10028000E05EFE4F1182108221503109FC01E20F25
:10029000F31FEE0FFF1FE05EFE4F81E090E09183C1
:1002A000808330930B0120930A01089520910A0165
:1002B00030910B012530310524F580910801909192
:1002C000090143E0880F991F4A95E1F7FC01E20F0D
:1002D000F31FEE0FFF1FE05EFE4F11821082F90147
:1002E0003396E80FF91FEE0FFF1FE05EFE4F81E02F
:1002F00090E0918380832F5F3F4F30930B012093D9
:100300000A0108951F920F920FB60F9211242F9396
:100310003F938F939F93AF93BF938091A10190914F
:10032000A201A091A301B091A4013091A00123E00A
:10033000230F2D3758F50196A11DB11D2093A00163
:100340008093A1019093A201A093A301B093A40173
:100350008091A5019091A601A091A701B091A8015B
:100360000196A11DB11D8093A5019093A601A093B4
:10037000A701B093A801BF91AF919F918F913F9139
:100380002F910F900FBE0F901F90189526E8230F06
:100390000296A11DB11DD2CF1F920F920FB60F92E0
:1003A00011242F933F934F935F936F937F938F937A
:1003B0009F93AF93BF93EF93FF93E0910201F0916E
:1003C00003010995FF91EF91BF91AF919F918F919B
:1003D0007F916F915F914F913F912F910F900FBE41
:1003E0000F901F9018951F920F920FB60F92112425
:1003F0002F933F934F935F936F937F938F939F932D
:10040000AF93BF93EF93FF93E0910001F09101014F
:100410000995FF91EF91BF91AF919F918F917F913E
:100420006F915F914F913F912F910F900FBE0F9061
:100430001F901895FC0181E090E09183808383E018
:1004400090E09383828387E090E09583848382E0C9
:1004500090E0978386836087611102C015821482C1
:100460000480F581E02D84E0EE0FFF1F8A95E1F70F
:10047000E05EFE4F81E090E09583848397838683DE
:10048000918780870895789484B5826084BD84B50F
:10049000816084BD85B5826085BD85B5816085BD7F
:1004A00080916E00816080936E0010928100809137
:1004B00081008260809381008091810081608093BF
:1004C0008100809180008160809380008091B100E4
:1004D00084608093B1008091B00081608093B0000F
:1004E00080917A00846080937A0080917A008260A3
:1004F00080937A0080917A00816080937A00809165
:100500007A00806880937A001092C10061E084E0F4
:100510000E94D30061E085E00E94D30061E086E0A4
:100520000E94D30061E087E00E94D30061E088E090
:100530000E94D30061E089E00E94D30061E08AE07C
:100540000E94D30061E08BE00E94D30061E08CE068
:100550000E94D30061E08DE00E94D30061E08EE054
:100560000E94D30061E08FE00E94D30061E080E14F
:100570000E94D30061E081E10E94D30061E082E14A
:100580000E94D30061E083E10E94D30061E084E037
:100590000E94870061E085E00E94870061E086E0BC
:1005A0000E94870061E087E00E94870061E088E0A8
:1005B0000E94870061E089E00E94870061E08AE094
:1005C0000E94870061E08BE00E94870060E08CE081
:1005D0000E94870060E08DE00E94870060E08EE06E
:1005E0000E94870060E08FE00E94870060E080E169
:1005F0000E94870060E081E10E94870060E082E164
:100600000E94870060E083E10E94870062E083E04F
:100610000E94D30062E082E00E94D30086E591E070
:100620009093030180930201809169008C60809314
:100630006900E99A8AE291E09093010180930001B8
:1006400080916900836080936900E89A40E0A42E5D
:1006500040E0B42ED12CC12C86010F5F1F4F01301A
:10066000110589F560E084E00E94870061E085E083
:100670000E9487000330110589F560E086E00E9442
:10068000870061E087E00E9487000530110589F549
:1006900060E088E00E94870061E089E00E948700B6
:1006A0000730110589F560E08AE00E94870061E06B
:1006B00033C068010930110579F6A114B10451F273
:1006C0000E940000C7CF61E084E00E9487000230F2
:1006D000110561F660E085E00E94870061E086E038
:1006E0000E9487000430110561F660E087E00E94F7
:1006F000870061E088E00E9487000630110561F6FE
:1007000060E089E00E94870061E08AE00E94870043
:1007100060E00830110559F68BE00E948700D0E0B8
:10072000C0E033E0CC0CDD1C3A95E1F7F601EC0FAC
:10073000FD1FEE0FFF1FE05EFE4FF08021966F2D34
:100740008CE0C130D10521F0C230D10591F58DE0AA
:100750000E9487006F2D81E1C630D10509F446C0A3
:100760002EC0C930D10511F70E9404016B017C0134
:1007700092E0492E512C612C712C0E9404016C19BD
:100780007D098E099F09683E734081059105A8F394
:1007900088EEC80E83E0D81EE11CF11C4A9445285F
:1007A0004628472809F485CF412C512C3201439427
:1007B000E4CFC330D10549F48EE00E9487006F2D4D
:1007C00082E1C730D10591F006C0C430D10549F4AB
:1007D0008FE00E948700C830D10519F66F2D83E1A4
:1007E00005C080E1C530D10509F0B4CF0E94870073
:1007F0009DCFE6E1F1E081E090E0918380839383F7
:10080000828324E030E035832483378326839093EA
:1008100069018093680183E090E09187808760E0C0
:100820008DE091E00E941A0261E084E091E00C9476
:100830001A02EE0FFF1F0590F491E02D0994F89431
:02084000FFCFE8
:04084200290129015E
:00000001FF
